{
  "_format": "hh-sol-artifact-1",
  "contractName": "ZKTitanDAO",
  "sourceName": "contracts/ZKTitanDAO.sol",
  "abi": [
    {
      "inputs": [
        {
          "internalType": "address",
          "name": "semaphoreAddress",
          "type": "address"
        }
      ],
      "stateMutability": "nonpayable",
      "type": "constructor"
    },
    {
      "anonymous": false,
      "inputs": [
        {
          "indexed": true,
          "internalType": "address",
          "name": "oldOwner",
          "type": "address"
        },
        {
          "indexed": true,
          "internalType": "address",
          "name": "newOwner",
          "type": "address"
        }
      ],
      "name": "OwnerChanged",
      "type": "event"
    },
    {
      "anonymous": false,
      "inputs": [
        {
          "indexed": false,
          "internalType": "uint256",
          "name": "groupId",
          "type": "uint256"
        }
      ],
      "name": "TitanDAOAdded",
      "type": "event"
    },
    {
      "anonymous": false,
      "inputs": [
        {
          "indexed": false,
          "internalType": "uint256",
          "name": "startedGroupId",
          "type": "uint256"
        }
      ],
      "name": "TitanDAORefreshed",
      "type": "event"
    },
    {
      "inputs": [],
      "name": "addTitanDAO",
      "outputs": [],
      "stateMutability": "nonpayable",
      "type": "function"
    },
    {
      "inputs": [
        {
          "internalType": "uint256",
          "name": "groupId",
          "type": "uint256"
        },
        {
          "internalType": "uint256",
          "name": "identityCommitment",
          "type": "uint256"
        }
      ],
      "name": "joinGroup",
      "outputs": [],
      "stateMutability": "nonpayable",
      "type": "function"
    },
    {
      "inputs": [],
      "name": "owner",
      "outputs": [
        {
          "internalType": "address",
          "name": "",
          "type": "address"
        }
      ],
      "stateMutability": "view",
      "type": "function"
    },
    {
      "inputs": [],
      "name": "refreshTitanDAO",
      "outputs": [],
      "stateMutability": "nonpayable",
      "type": "function"
    },
    {
      "inputs": [],
      "name": "semaphore",
      "outputs": [
        {
          "internalType": "contract ISemaphore",
          "name": "",
          "type": "address"
        }
      ],
      "stateMutability": "view",
      "type": "function"
    },
    {
      "inputs": [
        {
          "internalType": "uint256",
          "name": "feedback",
          "type": "uint256"
        },
        {
          "internalType": "uint256",
          "name": "groupId",
          "type": "uint256"
        },
        {
          "internalType": "uint256",
          "name": "merkleTreeRoot",
          "type": "uint256"
        },
        {
          "internalType": "uint256",
          "name": "nullifierHash",
          "type": "uint256"
        },
        {
          "internalType": "uint256",
          "name": "externalNullifier",
          "type": "uint256"
        },
        {
          "internalType": "uint256[8]",
          "name": "proof",
          "type": "uint256[8]"
        }
      ],
      "name": "sendFeedback",
      "outputs": [],
      "stateMutability": "nonpayable",
      "type": "function"
    },
    {
      "inputs": [
        {
          "internalType": "uint256",
          "name": "",
          "type": "uint256"
        }
      ],
      "name": "titanDAO",
      "outputs": [
        {
          "internalType": "uint256",
          "name": "",
          "type": "uint256"
        }
      ],
      "stateMutability": "view",
      "type": "function"
    },
    {
      "inputs": [
        {
          "internalType": "address",
          "name": "newOwner",
          "type": "address"
        }
      ],
      "name": "transferOwnership",
      "outputs": [],
      "stateMutability": "nonpayable",
      "type": "function"
    }
  ],
  "bytecode": "0x60806040526040518060600160405280600060ff168152602001600160ff168152602001600260ff1681525060029060036200003d92919062000386565b503480156200004b57600080fd5b506040516200157a3803806200157a833981810160405281019062000071919062000413565b33600160006101000a81548173ffffffffffffffffffffffffffffffffffffffff021916908373ffffffffffffffffffffffffffffffffffffffff160217905550806000806101000a81548173ffffffffffffffffffffffffffffffffffffffff021916908373ffffffffffffffffffffffffffffffffffffffff16021790555060008054906101000a900473ffffffffffffffffffffffffffffffffffffffff1673ffffffffffffffffffffffffffffffffffffffff16639c11214160026000815481106200016a577f4e487b7100000000000000000000000000000000000000000000000000000000600052603260045260246000fd5b90600052602060002001546014306040518463ffffffff1660e01b8152600401620001989392919062000472565b600060405180830381600087803b158015620001b357600080fd5b505af1158015620001c8573d6000803e3d6000fd5b5050505060008054906101000a900473ffffffffffffffffffffffffffffffffffffffff1673ffffffffffffffffffffffffffffffffffffffff16639c112141600260018154811062000244577f4e487b7100000000000000000000000000000000000000000000000000000000600052603260045260246000fd5b90600052602060002001546014306040518463ffffffff1660e01b8152600401620002729392919062000472565b600060405180830381600087803b1580156200028d57600080fd5b505af1158015620002a2573d6000803e3d6000fd5b5050505060008054906101000a900473ffffffffffffffffffffffffffffffffffffffff1673ffffffffffffffffffffffffffffffffffffffff16639c112141600280815481106200031d577f4e487b7100000000000000000000000000000000000000000000000000000000600052603260045260246000fd5b90600052602060002001546014306040518463ffffffff1660e01b81526004016200034b9392919062000472565b600060405180830381600087803b1580156200036657600080fd5b505af11580156200037b573d6000803e3d6000fd5b50505050506200051b565b828054828255906000526020600020908101928215620003ca579160200282015b82811115620003c9578251829060ff16905591602001919060010190620003a7565b5b509050620003d99190620003dd565b5090565b5b80821115620003f8576000816000905550600101620003de565b5090565b6000815190506200040d8162000501565b92915050565b6000602082840312156200042657600080fd5b60006200043684828501620003fc565b91505092915050565b6200044a81620004af565b82525050565b6200045b81620004ed565b82525050565b6200046c81620004e3565b82525050565b600060608201905062000489600083018662000461565b62000498602083018562000450565b620004a760408301846200043f565b949350505050565b6000620004bc82620004c3565b9050919050565b600073ffffffffffffffffffffffffffffffffffffffff82169050919050565b6000819050919050565b6000620004fa82620004e3565b9050919050565b6200050c81620004af565b81146200051857600080fd5b50565b61104f806200052b6000396000f3fe608060405234801561001057600080fd5b50600436106100885760003560e01c80637b5d25341161005b5780637b5d2534146100ff5780637ebacfbe1461011d5780638da5cb5b14610127578063f2fde38b1461014557610088565b80631a0c750c1461008d5780631e04c7a4146100a957806340999311146100d9578063652fd3df146100e3575b600080fd5b6100a760048036038101906100a29190610ac7565b610161565b005b6100c360048036038101906100be9190610a9e565b610282565b6040516100d09190610cd9565b60405180910390f35b6100e16102a6565b005b6100fd60048036038101906100f89190610b03565b61048f565b005b61010761052c565b6040516101149190610c5e565b60405180910390f35b610125610550565b005b61012f6107b6565b60405161013c9190610c43565b60405180910390f35b61015f600480360381019061015a9190610a75565b6107dc565b005b600160009054906101000a900473ffffffffffffffffffffffffffffffffffffffff1673ffffffffffffffffffffffffffffffffffffffff163373ffffffffffffffffffffffffffffffffffffffff16146101f1576040517f08c379a00000000000000000000000000000000000000000000000000000000081526004016101e890610c99565b60405180910390fd5b60008054906101000a900473ffffffffffffffffffffffffffffffffffffffff1673ffffffffffffffffffffffffffffffffffffffff16631783efc383836040518363ffffffff1660e01b815260040161024c929190610d2b565b600060405180830381600087803b15801561026657600080fd5b505af115801561027a573d6000803e3d6000fd5b505050505050565b6002818154811061029257600080fd5b906000526020600020016000915090505481565b600160009054906101000a900473ffffffffffffffffffffffffffffffffffffffff1673ffffffffffffffffffffffffffffffffffffffff163373ffffffffffffffffffffffffffffffffffffffff1614610336576040517f08c379a000000000000000000000000000000000000000000000000000000000815260040161032d90610c99565b60405180910390fd5b600060016002600160028054905061034e9190610e1d565b81548110610385577f4e487b7100000000000000000000000000000000000000000000000000000000600052603260045260246000fd5b906000526020600020015461039a9190610dc7565b9050600281908060018154018082558091505060019003906000526020600020016000909190919091505560008054906101000a900473ffffffffffffffffffffffffffffffffffffffff1673ffffffffffffffffffffffffffffffffffffffff16639c112141826014306040518463ffffffff1660e01b815260040161042393929190610cf4565b600060405180830381600087803b15801561043d57600080fd5b505af1158015610451573d6000803e3d6000fd5b505050507f888c4eabadf40b03f3a69b8e284ab2e88c0717aae949f093901f90c3acdf2bbb816040516104849190610cd9565b60405180910390a150565b60008054906101000a900473ffffffffffffffffffffffffffffffffffffffff1673ffffffffffffffffffffffffffffffffffffffff16633bc778e38686898787876040518763ffffffff1660e01b81526004016104f296959493929190610d54565b600060405180830381600087803b15801561050c57600080fd5b505af1158015610520573d6000803e3d6000fd5b50505050505050505050565b60008054906101000a900473ffffffffffffffffffffffffffffffffffffffff1681565b600160009054906101000a900473ffffffffffffffffffffffffffffffffffffffff1673ffffffffffffffffffffffffffffffffffffffff163373ffffffffffffffffffffffffffffffffffffffff16146105e0576040517f08c379a00000000000000000000000000000000000000000000000000000000081526004016105d790610c99565b60405180910390fd5b60005b6002805490508110156107375760028054905060028281548110610630577f4e487b7100000000000000000000000000000000000000000000000000000000600052603260045260246000fd5b9060005260206000200160008282546106499190610dc7565b9250508190555060008054906101000a900473ffffffffffffffffffffffffffffffffffffffff1673ffffffffffffffffffffffffffffffffffffffff16639c112141600283815481106106c6577f4e487b7100000000000000000000000000000000000000000000000000000000600052603260045260246000fd5b90600052602060002001546014306040518463ffffffff1660e01b81526004016106f293929190610cf4565b600060405180830381600087803b15801561070c57600080fd5b505af1158015610720573d6000803e3d6000fd5b50505050808061072f90610ed2565b9150506105e3565b507ff72b116c5c1a956d83bb6ef83438aa01657a38a96ad51a462753d73ffefc056d6002600081548110610794577f4e487b7100000000000000000000000000000000000000000000000000000000600052603260045260246000fd5b90600052602060002001546040516107ac9190610cd9565b60405180910390a1565b600160009054906101000a900473ffffffffffffffffffffffffffffffffffffffff1681565b600160009054906101000a900473ffffffffffffffffffffffffffffffffffffffff1673ffffffffffffffffffffffffffffffffffffffff163373ffffffffffffffffffffffffffffffffffffffff161461086c576040517f08c379a000000000000000000000000000000000000000000000000000000000815260040161086390610c99565b60405180910390fd5b600073ffffffffffffffffffffffffffffffffffffffff168173ffffffffffffffffffffffffffffffffffffffff1614156108dc576040517f08c379a00000000000000000000000000000000000000000000000000000000081526004016108d390610cb9565b60405180910390fd5b600160009054906101000a900473ffffffffffffffffffffffffffffffffffffffff1673ffffffffffffffffffffffffffffffffffffffff168173ffffffffffffffffffffffffffffffffffffffff16141561096d576040517f08c379a000000000000000000000000000000000000000000000000000000000815260040161096490610c79565b60405180910390fd5b8073ffffffffffffffffffffffffffffffffffffffff16600160009054906101000a900473ffffffffffffffffffffffffffffffffffffffff1673ffffffffffffffffffffffffffffffffffffffff167fb532073b38c83145e3e5135377a08bf9aab55bc0fd7c1179cd4fb995d2a5159c60405160405180910390a380600160006101000a81548173ffffffffffffffffffffffffffffffffffffffff021916908373ffffffffffffffffffffffffffffffffffffffff16021790555050565b600081359050610a3c81610feb565b92915050565b600081905082602060080282011115610a5a57600080fd5b92915050565b600081359050610a6f81611002565b92915050565b600060208284031215610a8757600080fd5b6000610a9584828501610a2d565b91505092915050565b600060208284031215610ab057600080fd5b6000610abe84828501610a60565b91505092915050565b60008060408385031215610ada57600080fd5b6000610ae885828601610a60565b9250506020610af985828601610a60565b9150509250929050565b6000806000806000806101a08789031215610b1d57600080fd5b6000610b2b89828a01610a60565b9650506020610b3c89828a01610a60565b9550506040610b4d89828a01610a60565b9450506060610b5e89828a01610a60565b9350506080610b6f89828a01610a60565b92505060a0610b8089828a01610a42565b9150509295509295509295565b610b9681610e51565b82525050565b610ba96101008383610ec3565b5050565b610bb681610e8d565b82525050565b610bc581610eb1565b82525050565b6000610bd8602583610db6565b9150610be382610f4a565b604082019050919050565b6000610bfb600983610db6565b9150610c0682610f99565b602082019050919050565b6000610c1e602083610db6565b9150610c2982610fc2565b602082019050919050565b610c3d81610e83565b82525050565b6000602082019050610c586000830184610b8d565b92915050565b6000602082019050610c736000830184610bad565b92915050565b60006020820190508181036000830152610c9281610bcb565b9050919050565b60006020820190508181036000830152610cb281610bee565b9050919050565b60006020820190508181036000830152610cd281610c11565b9050919050565b6000602082019050610cee6000830184610c34565b92915050565b6000606082019050610d096000830186610c34565b610d166020830185610bbc565b610d236040830184610b8d565b949350505050565b6000604082019050610d406000830185610c34565b610d4d6020830184610c34565b9392505050565b60006101a082019050610d6a6000830189610c34565b610d776020830188610c34565b610d846040830187610c34565b610d916060830186610c34565b610d9e6080830185610c34565b610dab60a0830184610b9c565b979650505050505050565b600082825260208201905092915050565b6000610dd282610e83565b9150610ddd83610e83565b9250827fffffffffffffffffffffffffffffffffffffffffffffffffffffffffffffffff03821115610e1257610e11610f1b565b5b828201905092915050565b6000610e2882610e83565b9150610e3383610e83565b925082821015610e4657610e45610f1b565b5b828203905092915050565b6000610e5c82610e63565b9050919050565b600073ffffffffffffffffffffffffffffffffffffffff82169050919050565b6000819050919050565b6000610e9882610e9f565b9050919050565b6000610eaa82610e63565b9050919050565b6000610ebc82610e83565b9050919050565b82818337600083830152505050565b6000610edd82610e83565b91507fffffffffffffffffffffffffffffffffffffffffffffffffffffffffffffffff821415610f1057610f0f610f1b565b5b600182019050919050565b7f4e487b7100000000000000000000000000000000000000000000000000000000600052601160045260246000fd5b7f4e6577206f776e65722063616e6e6f74206265207468652063757272656e742060008201527f6f776e6572000000000000000000000000000000000000000000000000000000602082015250565b7f4e6f74206f776e65720000000000000000000000000000000000000000000000600082015250565b7f4e6577206f776e65722063616e6e6f74206265207a65726f2061646472657373600082015250565b610ff481610e51565b8114610fff57600080fd5b50565b61100b81610e83565b811461101657600080fd5b5056fea264697066735822122072bb1e6b70402e20c4dc2f854f5388206d594f60b13d318f49c911393870b0ed64736f6c63430008040033",
  "linkReferences": {},
  "deployedLinkReferences": {}
}