{
  "_format": "hh-sol-artifact-1",
  "contractName": "ZKTitanDAO",
  "sourceName": "contracts/ZKTitanDAO.sol",
  "abi": [
    {
      "inputs": [
        {
          "internalType": "address",
          "name": "semaphoreAddress",
          "type": "address"
        }
      ],
      "stateMutability": "nonpayable",
      "type": "constructor"
    },
    {
      "anonymous": false,
      "inputs": [
        {
          "indexed": false,
          "internalType": "uint256",
          "name": "groupId",
          "type": "uint256"
        }
      ],
      "name": "TitanDAOAdded",
      "type": "event"
    },
    {
      "anonymous": false,
      "inputs": [
        {
          "indexed": false,
          "internalType": "uint256",
          "name": "startedGroupId",
          "type": "uint256"
        }
      ],
      "name": "TitanDAORefreashed",
      "type": "event"
    },
    {
      "inputs": [],
      "name": "addTitanDAO",
      "outputs": [],
      "stateMutability": "nonpayable",
      "type": "function"
    },
    {
      "inputs": [
        {
          "internalType": "uint256",
          "name": "groupId",
          "type": "uint256"
        },
        {
          "internalType": "uint256",
          "name": "identityCommitment",
          "type": "uint256"
        }
      ],
      "name": "joinGroup",
      "outputs": [],
      "stateMutability": "nonpayable",
      "type": "function"
    },
    {
      "inputs": [],
      "name": "owner",
      "outputs": [
        {
          "internalType": "address",
          "name": "",
          "type": "address"
        }
      ],
      "stateMutability": "view",
      "type": "function"
    },
    {
      "inputs": [],
      "name": "refreashTitanDAO",
      "outputs": [],
      "stateMutability": "nonpayable",
      "type": "function"
    },
    {
      "inputs": [],
      "name": "semaphore",
      "outputs": [
        {
          "internalType": "contract ISemaphore",
          "name": "",
          "type": "address"
        }
      ],
      "stateMutability": "view",
      "type": "function"
    },
    {
      "inputs": [
        {
          "internalType": "uint256",
          "name": "feedback",
          "type": "uint256"
        },
        {
          "internalType": "uint256",
          "name": "groupId",
          "type": "uint256"
        },
        {
          "internalType": "uint256",
          "name": "merkleTreeRoot",
          "type": "uint256"
        },
        {
          "internalType": "uint256",
          "name": "nullifierHash",
          "type": "uint256"
        },
        {
          "internalType": "uint256",
          "name": "externalNullifier",
          "type": "uint256"
        },
        {
          "internalType": "uint256[8]",
          "name": "proof",
          "type": "uint256[8]"
        }
      ],
      "name": "sendFeedback",
      "outputs": [],
      "stateMutability": "nonpayable",
      "type": "function"
    },
    {
      "inputs": [
        {
          "internalType": "uint256",
          "name": "",
          "type": "uint256"
        }
      ],
      "name": "titanDAO",
      "outputs": [
        {
          "internalType": "uint256",
          "name": "",
          "type": "uint256"
        }
      ],
      "stateMutability": "view",
      "type": "function"
    }
  ],
  "bytecode": "0x60806040526040518060600160405280600060ff168152602001600160ff168152602001600260ff1681525060029060036200003d92919062000386565b503480156200004b57600080fd5b506040516200117b3803806200117b833981810160405281019062000071919062000413565b33600160006101000a81548173ffffffffffffffffffffffffffffffffffffffff021916908373ffffffffffffffffffffffffffffffffffffffff160217905550806000806101000a81548173ffffffffffffffffffffffffffffffffffffffff021916908373ffffffffffffffffffffffffffffffffffffffff16021790555060008054906101000a900473ffffffffffffffffffffffffffffffffffffffff1673ffffffffffffffffffffffffffffffffffffffff16639c11214160026000815481106200016a577f4e487b7100000000000000000000000000000000000000000000000000000000600052603260045260246000fd5b90600052602060002001546014306040518463ffffffff1660e01b8152600401620001989392919062000472565b600060405180830381600087803b158015620001b357600080fd5b505af1158015620001c8573d6000803e3d6000fd5b5050505060008054906101000a900473ffffffffffffffffffffffffffffffffffffffff1673ffffffffffffffffffffffffffffffffffffffff16639c112141600260018154811062000244577f4e487b7100000000000000000000000000000000000000000000000000000000600052603260045260246000fd5b90600052602060002001546014306040518463ffffffff1660e01b8152600401620002729392919062000472565b600060405180830381600087803b1580156200028d57600080fd5b505af1158015620002a2573d6000803e3d6000fd5b5050505060008054906101000a900473ffffffffffffffffffffffffffffffffffffffff1673ffffffffffffffffffffffffffffffffffffffff16639c112141600280815481106200031d577f4e487b7100000000000000000000000000000000000000000000000000000000600052603260045260246000fd5b90600052602060002001546014306040518463ffffffff1660e01b81526004016200034b9392919062000472565b600060405180830381600087803b1580156200036657600080fd5b505af11580156200037b573d6000803e3d6000fd5b50505050506200051b565b828054828255906000526020600020908101928215620003ca579160200282015b82811115620003c9578251829060ff16905591602001919060010190620003a7565b5b509050620003d99190620003dd565b5090565b5b80821115620003f8576000816000905550600101620003de565b5090565b6000815190506200040d8162000501565b92915050565b6000602082840312156200042657600080fd5b60006200043684828501620003fc565b91505092915050565b6200044a81620004af565b82525050565b6200045b81620004ed565b82525050565b6200046c81620004e3565b82525050565b600060608201905062000489600083018662000461565b62000498602083018562000450565b620004a760408301846200043f565b949350505050565b6000620004bc82620004c3565b9050919050565b600073ffffffffffffffffffffffffffffffffffffffff82169050919050565b6000819050919050565b6000620004fa82620004e3565b9050919050565b6200050c81620004af565b81146200051857600080fd5b50565b610c50806200052b6000396000f3fe608060405234801561001057600080fd5b506004361061007d5760003560e01c8063409993111161005b57806340999311146100d8578063652fd3df146100e25780637b5d2534146100fe5780638da5cb5b1461011c5761007d565b80631a0c750c146100825780631e04c7a41461009e57806330047474146100ce575b600080fd5b61009c600480360381019061009791906107dd565b61013a565b005b6100b860048036038101906100b391906107b4565b61025b565b6040516100c59190610969565b60405180910390f35b6100d661027f565b005b6100e0610411565b005b6100fc60048036038101906100f79190610819565b61069a565b005b610106610737565b604051610113919061092e565b60405180910390f35b61012461075b565b6040516101319190610913565b60405180910390f35b600160009054906101000a900473ffffffffffffffffffffffffffffffffffffffff1673ffffffffffffffffffffffffffffffffffffffff163373ffffffffffffffffffffffffffffffffffffffff16146101ca576040517f08c379a00000000000000000000000000000000000000000000000000000000081526004016101c190610949565b60405180910390fd5b60008054906101000a900473ffffffffffffffffffffffffffffffffffffffff1673ffffffffffffffffffffffffffffffffffffffff16631783efc383836040518363ffffffff1660e01b81526004016102259291906109bb565b600060405180830381600087803b15801561023f57600080fd5b505af1158015610253573d6000803e3d6000fd5b505050505050565b6002818154811061026b57600080fd5b906000526020600020016000915090505481565b600160009054906101000a900473ffffffffffffffffffffffffffffffffffffffff1673ffffffffffffffffffffffffffffffffffffffff163373ffffffffffffffffffffffffffffffffffffffff161461030f576040517f08c379a000000000000000000000000000000000000000000000000000000000815260040161030690610949565b60405180910390fd5b60005b600280549050811015610392576002805490506002828154811061035f577f4e487b7100000000000000000000000000000000000000000000000000000000600052603260045260246000fd5b9060005260206000200160008282546103789190610a57565b92505081905550808061038a90610b62565b915050610312565b507fe93118244326e82e9850d0cbb37c22b94474ee14b90c8d0acd4d4128a3c0880060026000815481106103ef577f4e487b7100000000000000000000000000000000000000000000000000000000600052603260045260246000fd5b90600052602060002001546040516104079190610969565b60405180910390a1565b600160009054906101000a900473ffffffffffffffffffffffffffffffffffffffff1673ffffffffffffffffffffffffffffffffffffffff163373ffffffffffffffffffffffffffffffffffffffff16146104a1576040517f08c379a000000000000000000000000000000000000000000000000000000000815260040161049890610949565b60405180910390fd5b600060016002805490506104b59190610aad565b905060026001600283815481106104f5577f4e487b7100000000000000000000000000000000000000000000000000000000600052603260045260246000fd5b906000526020600020015461050a9190610a57565b908060018154018082558091505060019003906000526020600020016000909190919091505560008054906101000a900473ffffffffffffffffffffffffffffffffffffffff1673ffffffffffffffffffffffffffffffffffffffff16639c112141600260018461057b9190610a57565b815481106105b2577f4e487b7100000000000000000000000000000000000000000000000000000000600052603260045260246000fd5b90600052602060002001546014306040518463ffffffff1660e01b81526004016105de93929190610984565b600060405180830381600087803b1580156105f857600080fd5b505af115801561060c573d6000803e3d6000fd5b505050507f888c4eabadf40b03f3a69b8e284ab2e88c0717aae949f093901f90c3acdf2bbb60026001836106409190610a57565b81548110610677577f4e487b7100000000000000000000000000000000000000000000000000000000600052603260045260246000fd5b906000526020600020015460405161068f9190610969565b60405180910390a150565b60008054906101000a900473ffffffffffffffffffffffffffffffffffffffff1673ffffffffffffffffffffffffffffffffffffffff16633bc778e38686898787876040518763ffffffff1660e01b81526004016106fd969594939291906109e4565b600060405180830381600087803b15801561071757600080fd5b505af115801561072b573d6000803e3d6000fd5b50505050505050505050565b60008054906101000a900473ffffffffffffffffffffffffffffffffffffffff1681565b600160009054906101000a900473ffffffffffffffffffffffffffffffffffffffff1681565b60008190508260206008028201111561079957600080fd5b92915050565b6000813590506107ae81610c03565b92915050565b6000602082840312156107c657600080fd5b60006107d48482850161079f565b91505092915050565b600080604083850312156107f057600080fd5b60006107fe8582860161079f565b925050602061080f8582860161079f565b9150509250929050565b6000806000806000806101a0878903121561083357600080fd5b600061084189828a0161079f565b965050602061085289828a0161079f565b955050604061086389828a0161079f565b945050606061087489828a0161079f565b935050608061088589828a0161079f565b92505060a061089689828a01610781565b9150509295509295509295565b6108ac81610ae1565b82525050565b6108bf6101008383610b53565b5050565b6108cc81610b1d565b82525050565b6108db81610b41565b82525050565b60006108ee600983610a46565b91506108f982610bda565b602082019050919050565b61090d81610b13565b82525050565b600060208201905061092860008301846108a3565b92915050565b600060208201905061094360008301846108c3565b92915050565b60006020820190508181036000830152610962816108e1565b9050919050565b600060208201905061097e6000830184610904565b92915050565b60006060820190506109996000830186610904565b6109a660208301856108d2565b6109b360408301846108a3565b949350505050565b60006040820190506109d06000830185610904565b6109dd6020830184610904565b9392505050565b60006101a0820190506109fa6000830189610904565b610a076020830188610904565b610a146040830187610904565b610a216060830186610904565b610a2e6080830185610904565b610a3b60a08301846108b2565b979650505050505050565b600082825260208201905092915050565b6000610a6282610b13565b9150610a6d83610b13565b9250827fffffffffffffffffffffffffffffffffffffffffffffffffffffffffffffffff03821115610aa257610aa1610bab565b5b828201905092915050565b6000610ab882610b13565b9150610ac383610b13565b925082821015610ad657610ad5610bab565b5b828203905092915050565b6000610aec82610af3565b9050919050565b600073ffffffffffffffffffffffffffffffffffffffff82169050919050565b6000819050919050565b6000610b2882610b2f565b9050919050565b6000610b3a82610af3565b9050919050565b6000610b4c82610b13565b9050919050565b82818337600083830152505050565b6000610b6d82610b13565b91507fffffffffffffffffffffffffffffffffffffffffffffffffffffffffffffffff821415610ba057610b9f610bab565b5b600182019050919050565b7f4e487b7100000000000000000000000000000000000000000000000000000000600052601160045260246000fd5b7f4e6f74206f776e65720000000000000000000000000000000000000000000000600082015250565b610c0c81610b13565b8114610c1757600080fd5b5056fea26469706673582212202be76e80ff742cd5774ad7476dace7c9de201318ca465677d2f5fa56b87dbaa664736f6c63430008040033",
  "linkReferences": {},
  "deployedLinkReferences": {}
}