{
  "_format": "hh-sol-artifact-1",
  "contractName": "ZKTitanDAO",
  "sourceName": "contracts/ZKTitanDAO.sol",
  "abi": [
    {
      "inputs": [
        {
          "internalType": "address",
          "name": "semaphoreAddress",
          "type": "address"
        }
      ],
      "stateMutability": "nonpayable",
      "type": "constructor"
    },
    {
      "anonymous": false,
      "inputs": [
        {
          "indexed": true,
          "internalType": "address",
          "name": "oldOwner",
          "type": "address"
        },
        {
          "indexed": true,
          "internalType": "address",
          "name": "newOwner",
          "type": "address"
        }
      ],
      "name": "OwnerChanged",
      "type": "event"
    },
    {
      "anonymous": false,
      "inputs": [
        {
          "indexed": false,
          "internalType": "uint256",
          "name": "groupId",
          "type": "uint256"
        }
      ],
      "name": "TitanDAOAdded",
      "type": "event"
    },
    {
      "anonymous": false,
      "inputs": [
        {
          "indexed": false,
          "internalType": "uint256",
          "name": "startedGroupId",
          "type": "uint256"
        }
      ],
      "name": "TitanDAORefreshed",
      "type": "event"
    },
    {
      "inputs": [],
      "name": "addTitanDAO",
      "outputs": [],
      "stateMutability": "nonpayable",
      "type": "function"
    },
    {
      "inputs": [
        {
          "internalType": "uint256",
          "name": "groupId",
          "type": "uint256"
        },
        {
          "internalType": "uint256",
          "name": "identityCommitment",
          "type": "uint256"
        }
      ],
      "name": "joinGroup",
      "outputs": [],
      "stateMutability": "nonpayable",
      "type": "function"
    },
    {
      "inputs": [],
      "name": "owner",
      "outputs": [
        {
          "internalType": "address",
          "name": "",
          "type": "address"
        }
      ],
      "stateMutability": "view",
      "type": "function"
    },
    {
      "inputs": [],
      "name": "refreshTitanDAO",
      "outputs": [],
      "stateMutability": "nonpayable",
      "type": "function"
    },
    {
      "inputs": [],
      "name": "semaphore",
      "outputs": [
        {
          "internalType": "contract ISemaphore",
          "name": "",
          "type": "address"
        }
      ],
      "stateMutability": "view",
      "type": "function"
    },
    {
      "inputs": [
        {
          "internalType": "uint256",
          "name": "feedback",
          "type": "uint256"
        },
        {
          "internalType": "uint256",
          "name": "groupId",
          "type": "uint256"
        },
        {
          "internalType": "uint256",
          "name": "merkleTreeRoot",
          "type": "uint256"
        },
        {
          "internalType": "uint256",
          "name": "nullifierHash",
          "type": "uint256"
        },
        {
          "internalType": "uint256",
          "name": "externalNullifier",
          "type": "uint256"
        },
        {
          "internalType": "uint256[8]",
          "name": "proof",
          "type": "uint256[8]"
        }
      ],
      "name": "sendFeedback",
      "outputs": [],
      "stateMutability": "nonpayable",
      "type": "function"
    },
    {
      "inputs": [
        {
          "internalType": "uint256",
          "name": "",
          "type": "uint256"
        }
      ],
      "name": "titanDAO",
      "outputs": [
        {
          "internalType": "uint256",
          "name": "",
          "type": "uint256"
        }
      ],
      "stateMutability": "view",
      "type": "function"
    },
    {
      "inputs": [
        {
          "internalType": "address",
          "name": "newOwner",
          "type": "address"
        }
      ],
      "name": "transferOwnership",
      "outputs": [],
      "stateMutability": "nonpayable",
      "type": "function"
    }
  ],
  "bytecode": "0x60806040526040518060600160405280600060ff168152602001600160ff168152602001600260ff1681525060029060036200003d92919062000386565b503480156200004b57600080fd5b50604051620014f7380380620014f7833981810160405281019062000071919062000413565b33600160006101000a81548173ffffffffffffffffffffffffffffffffffffffff021916908373ffffffffffffffffffffffffffffffffffffffff160217905550806000806101000a81548173ffffffffffffffffffffffffffffffffffffffff021916908373ffffffffffffffffffffffffffffffffffffffff16021790555060008054906101000a900473ffffffffffffffffffffffffffffffffffffffff1673ffffffffffffffffffffffffffffffffffffffff16639c11214160026000815481106200016a577f4e487b7100000000000000000000000000000000000000000000000000000000600052603260045260246000fd5b90600052602060002001546014306040518463ffffffff1660e01b8152600401620001989392919062000472565b600060405180830381600087803b158015620001b357600080fd5b505af1158015620001c8573d6000803e3d6000fd5b5050505060008054906101000a900473ffffffffffffffffffffffffffffffffffffffff1673ffffffffffffffffffffffffffffffffffffffff16639c112141600260018154811062000244577f4e487b7100000000000000000000000000000000000000000000000000000000600052603260045260246000fd5b90600052602060002001546014306040518463ffffffff1660e01b8152600401620002729392919062000472565b600060405180830381600087803b1580156200028d57600080fd5b505af1158015620002a2573d6000803e3d6000fd5b5050505060008054906101000a900473ffffffffffffffffffffffffffffffffffffffff1673ffffffffffffffffffffffffffffffffffffffff16639c112141600280815481106200031d577f4e487b7100000000000000000000000000000000000000000000000000000000600052603260045260246000fd5b90600052602060002001546014306040518463ffffffff1660e01b81526004016200034b9392919062000472565b600060405180830381600087803b1580156200036657600080fd5b505af11580156200037b573d6000803e3d6000fd5b50505050506200051b565b828054828255906000526020600020908101928215620003ca579160200282015b82811115620003c9578251829060ff16905591602001919060010190620003a7565b5b509050620003d99190620003dd565b5090565b5b80821115620003f8576000816000905550600101620003de565b5090565b6000815190506200040d8162000501565b92915050565b6000602082840312156200042657600080fd5b60006200043684828501620003fc565b91505092915050565b6200044a81620004af565b82525050565b6200045b81620004ed565b82525050565b6200046c81620004e3565b82525050565b600060608201905062000489600083018662000461565b62000498602083018562000450565b620004a760408301846200043f565b949350505050565b6000620004bc82620004c3565b9050919050565b600073ffffffffffffffffffffffffffffffffffffffff82169050919050565b6000819050919050565b6000620004fa82620004e3565b9050919050565b6200050c81620004af565b81146200051857600080fd5b50565b610fcc806200052b6000396000f3fe608060405234801561001057600080fd5b50600436106100885760003560e01c80637b5d25341161005b5780637b5d2534146100ff5780637ebacfbe1461011d5780638da5cb5b14610127578063f2fde38b1461014557610088565b80631a0c750c1461008d5780631e04c7a4146100a957806340999311146100d9578063652fd3df146100e3575b600080fd5b6100a760048036038101906100a29190610ad6565b610161565b005b6100c360048036038101906100be9190610aad565b610282565b6040516100d09190610ca5565b60405180910390f35b6100e16102a6565b005b6100fd60048036038101906100f89190610b12565b61052f565b005b6101076105cc565b6040516101149190610c4a565b60405180910390f35b6101256105f0565b005b61012f610856565b60405161013c9190610c2f565b60405180910390f35b61015f600480360381019061015a9190610a84565b61087c565b005b600160009054906101000a900473ffffffffffffffffffffffffffffffffffffffff1673ffffffffffffffffffffffffffffffffffffffff163373ffffffffffffffffffffffffffffffffffffffff16146101f1576040517f08c379a00000000000000000000000000000000000000000000000000000000081526004016101e890610c65565b60405180910390fd5b60008054906101000a900473ffffffffffffffffffffffffffffffffffffffff1673ffffffffffffffffffffffffffffffffffffffff16631783efc383836040518363ffffffff1660e01b815260040161024c929190610cf7565b600060405180830381600087803b15801561026657600080fd5b505af115801561027a573d6000803e3d6000fd5b505050505050565b6002818154811061029257600080fd5b906000526020600020016000915090505481565b600160009054906101000a900473ffffffffffffffffffffffffffffffffffffffff1673ffffffffffffffffffffffffffffffffffffffff163373ffffffffffffffffffffffffffffffffffffffff1614610336576040517f08c379a000000000000000000000000000000000000000000000000000000000815260040161032d90610c65565b60405180910390fd5b6000600160028054905061034a9190610de9565b9050600260016002838154811061038a577f4e487b7100000000000000000000000000000000000000000000000000000000600052603260045260246000fd5b906000526020600020015461039f9190610d93565b908060018154018082558091505060019003906000526020600020016000909190919091505560008054906101000a900473ffffffffffffffffffffffffffffffffffffffff1673ffffffffffffffffffffffffffffffffffffffff16639c11214160026001846104109190610d93565b81548110610447577f4e487b7100000000000000000000000000000000000000000000000000000000600052603260045260246000fd5b90600052602060002001546014306040518463ffffffff1660e01b815260040161047393929190610cc0565b600060405180830381600087803b15801561048d57600080fd5b505af11580156104a1573d6000803e3d6000fd5b505050507f888c4eabadf40b03f3a69b8e284ab2e88c0717aae949f093901f90c3acdf2bbb60026001836104d59190610d93565b8154811061050c577f4e487b7100000000000000000000000000000000000000000000000000000000600052603260045260246000fd5b90600052602060002001546040516105249190610ca5565b60405180910390a150565b60008054906101000a900473ffffffffffffffffffffffffffffffffffffffff1673ffffffffffffffffffffffffffffffffffffffff16633bc778e38686898787876040518763ffffffff1660e01b815260040161059296959493929190610d20565b600060405180830381600087803b1580156105ac57600080fd5b505af11580156105c0573d6000803e3d6000fd5b50505050505050505050565b60008054906101000a900473ffffffffffffffffffffffffffffffffffffffff1681565b600160009054906101000a900473ffffffffffffffffffffffffffffffffffffffff1673ffffffffffffffffffffffffffffffffffffffff163373ffffffffffffffffffffffffffffffffffffffff1614610680576040517f08c379a000000000000000000000000000000000000000000000000000000000815260040161067790610c65565b60405180910390fd5b60005b6002805490508110156107d757600280549050600282815481106106d0577f4e487b7100000000000000000000000000000000000000000000000000000000600052603260045260246000fd5b9060005260206000200160008282546106e99190610d93565b9250508190555060008054906101000a900473ffffffffffffffffffffffffffffffffffffffff1673ffffffffffffffffffffffffffffffffffffffff16639c11214160028381548110610766577f4e487b7100000000000000000000000000000000000000000000000000000000600052603260045260246000fd5b90600052602060002001546014306040518463ffffffff1660e01b815260040161079293929190610cc0565b600060405180830381600087803b1580156107ac57600080fd5b505af11580156107c0573d6000803e3d6000fd5b5050505080806107cf90610e9e565b915050610683565b507ff72b116c5c1a956d83bb6ef83438aa01657a38a96ad51a462753d73ffefc056d6002600081548110610834577f4e487b7100000000000000000000000000000000000000000000000000000000600052603260045260246000fd5b906000526020600020015460405161084c9190610ca5565b60405180910390a1565b600160009054906101000a900473ffffffffffffffffffffffffffffffffffffffff1681565b600160009054906101000a900473ffffffffffffffffffffffffffffffffffffffff1673ffffffffffffffffffffffffffffffffffffffff163373ffffffffffffffffffffffffffffffffffffffff161461090c576040517f08c379a000000000000000000000000000000000000000000000000000000000815260040161090390610c65565b60405180910390fd5b600073ffffffffffffffffffffffffffffffffffffffff168173ffffffffffffffffffffffffffffffffffffffff16141561097c576040517f08c379a000000000000000000000000000000000000000000000000000000000815260040161097390610c85565b60405180910390fd5b8073ffffffffffffffffffffffffffffffffffffffff16600160009054906101000a900473ffffffffffffffffffffffffffffffffffffffff1673ffffffffffffffffffffffffffffffffffffffff167fb532073b38c83145e3e5135377a08bf9aab55bc0fd7c1179cd4fb995d2a5159c60405160405180910390a380600160006101000a81548173ffffffffffffffffffffffffffffffffffffffff021916908373ffffffffffffffffffffffffffffffffffffffff16021790555050565b600081359050610a4b81610f68565b92915050565b600081905082602060080282011115610a6957600080fd5b92915050565b600081359050610a7e81610f7f565b92915050565b600060208284031215610a9657600080fd5b6000610aa484828501610a3c565b91505092915050565b600060208284031215610abf57600080fd5b6000610acd84828501610a6f565b91505092915050565b60008060408385031215610ae957600080fd5b6000610af785828601610a6f565b9250506020610b0885828601610a6f565b9150509250929050565b6000806000806000806101a08789031215610b2c57600080fd5b6000610b3a89828a01610a6f565b9650506020610b4b89828a01610a6f565b9550506040610b5c89828a01610a6f565b9450506060610b6d89828a01610a6f565b9350506080610b7e89828a01610a6f565b92505060a0610b8f89828a01610a51565b9150509295509295509295565b610ba581610e1d565b82525050565b610bb86101008383610e8f565b5050565b610bc581610e59565b82525050565b610bd481610e7d565b82525050565b6000610be7600983610d82565b9150610bf282610f16565b602082019050919050565b6000610c0a602083610d82565b9150610c1582610f3f565b602082019050919050565b610c2981610e4f565b82525050565b6000602082019050610c446000830184610b9c565b92915050565b6000602082019050610c5f6000830184610bbc565b92915050565b60006020820190508181036000830152610c7e81610bda565b9050919050565b60006020820190508181036000830152610c9e81610bfd565b9050919050565b6000602082019050610cba6000830184610c20565b92915050565b6000606082019050610cd56000830186610c20565b610ce26020830185610bcb565b610cef6040830184610b9c565b949350505050565b6000604082019050610d0c6000830185610c20565b610d196020830184610c20565b9392505050565b60006101a082019050610d366000830189610c20565b610d436020830188610c20565b610d506040830187610c20565b610d5d6060830186610c20565b610d6a6080830185610c20565b610d7760a0830184610bab565b979650505050505050565b600082825260208201905092915050565b6000610d9e82610e4f565b9150610da983610e4f565b9250827fffffffffffffffffffffffffffffffffffffffffffffffffffffffffffffffff03821115610dde57610ddd610ee7565b5b828201905092915050565b6000610df482610e4f565b9150610dff83610e4f565b925082821015610e1257610e11610ee7565b5b828203905092915050565b6000610e2882610e2f565b9050919050565b600073ffffffffffffffffffffffffffffffffffffffff82169050919050565b6000819050919050565b6000610e6482610e6b565b9050919050565b6000610e7682610e2f565b9050919050565b6000610e8882610e4f565b9050919050565b82818337600083830152505050565b6000610ea982610e4f565b91507fffffffffffffffffffffffffffffffffffffffffffffffffffffffffffffffff821415610edc57610edb610ee7565b5b600182019050919050565b7f4e487b7100000000000000000000000000000000000000000000000000000000600052601160045260246000fd5b7f4e6f74206f776e65720000000000000000000000000000000000000000000000600082015250565b7f4e6577206f776e65722063616e6e6f74206265207a65726f2061646472657373600082015250565b610f7181610e1d565b8114610f7c57600080fd5b50565b610f8881610e4f565b8114610f9357600080fd5b5056fea2646970667358221220b20731dededd58b5a66e6bcb9f1d42ee76de43b03b9e923d0fb5fc5037ffeca764736f6c63430008040033",
  "linkReferences": {},
  "deployedLinkReferences": {}
}